{
  "_format": "hh-sol-artifact-1",
  "contractName": "DomainMarket",
  "sourceName": "contracts/DomainMarket.sol",
  "abi": [
    {
      "inputs": [],
      "stateMutability": "nonpayable",
      "type": "constructor"
    },
    {
      "anonymous": false,
      "inputs": [
        {
          "indexed": true,
          "internalType": "uint256",
          "name": "itemId",
          "type": "uint256"
        },
        {
          "indexed": true,
          "internalType": "address",
          "name": "nftContract",
          "type": "address"
        },
        {
          "indexed": true,
          "internalType": "uint256",
          "name": "tokenId",
          "type": "uint256"
        },
        {
          "indexed": false,
          "internalType": "address",
          "name": "seller",
          "type": "address"
        },
        {
          "indexed": false,
          "internalType": "uint256",
          "name": "price",
          "type": "uint256"
        }
      ],
      "name": "MarketItemCreated",
      "type": "event"
    },
    {
      "inputs": [
        {
          "internalType": "address",
          "name": "nftContract",
          "type": "address"
        },
        {
          "internalType": "uint256",
          "name": "tokenId",
          "type": "uint256"
        },
        {
          "internalType": "uint256",
          "name": "price",
          "type": "uint256"
        }
      ],
      "name": "createMarketItem",
      "outputs": [],
      "stateMutability": "payable",
      "type": "function"
    },
    {
      "inputs": [],
      "name": "fetchMarketItems",
      "outputs": [
        {
          "components": [
            {
              "internalType": "uint256",
              "name": "itemId",
              "type": "uint256"
            },
            {
              "internalType": "address",
              "name": "nftContract",
              "type": "address"
            },
            {
              "internalType": "uint256",
              "name": "tokenId",
              "type": "uint256"
            },
            {
              "internalType": "address payable",
              "name": "seller",
              "type": "address"
            },
            {
              "internalType": "uint256",
              "name": "price",
              "type": "uint256"
            }
          ],
          "internalType": "struct DomainMarket.MarketItem[]",
          "name": "",
          "type": "tuple[]"
        }
      ],
      "stateMutability": "view",
      "type": "function"
    },
    {
      "inputs": [
        {
          "internalType": "uint256",
          "name": "marketItemId",
          "type": "uint256"
        }
      ],
      "name": "getMarketItem",
      "outputs": [
        {
          "components": [
            {
              "internalType": "uint256",
              "name": "itemId",
              "type": "uint256"
            },
            {
              "internalType": "address",
              "name": "nftContract",
              "type": "address"
            },
            {
              "internalType": "uint256",
              "name": "tokenId",
              "type": "uint256"
            },
            {
              "internalType": "address payable",
              "name": "seller",
              "type": "address"
            },
            {
              "internalType": "uint256",
              "name": "price",
              "type": "uint256"
            }
          ],
          "internalType": "struct DomainMarket.MarketItem",
          "name": "",
          "type": "tuple"
        }
      ],
      "stateMutability": "view",
      "type": "function"
    }
  ],
  "bytecode": "0x608060405234801561001057600080fd5b50600160008190555033600260006101000a81548173ffffffffffffffffffffffffffffffffffffffff021916908373ffffffffffffffffffffffffffffffffffffffff160217905550610ccc806100696000396000f3fe6080604052600436106100345760003560e01c80630f08efe01461003957806358eb2df514610064578063c7be7a4914610080575b600080fd5b34801561004557600080fd5b5061004e6100bd565b60405161005b9190610a33565b60405180910390f35b61007e60048036038101906100799190610784565b610355565b005b34801561008c57600080fd5b506100a760048036038101906100a291906107d3565b6105e4565b6040516100b49190610a95565b60405180910390f35b606060006100cb60016106db565b90506000808267ffffffffffffffff811115610110577f4e487b7100000000000000000000000000000000000000000000000000000000600052604160045260246000fd5b60405190808252806020026020018201604052801561014957816020015b6101366106ff565b81526020019060019003908161012e5790505b50905060005b8381101561034b57600073ffffffffffffffffffffffffffffffffffffffff16600360006001846101809190610afa565b815260200190815260200160002060030160009054906101000a900473ffffffffffffffffffffffffffffffffffffffff1673ffffffffffffffffffffffffffffffffffffffff161415610338576000600360006001846101e19190610afa565b81526020019081526020016000206000015490506000600360008381526020019081526020016000209050806040518060a0016040529081600082015481526020016001820160009054906101000a900473ffffffffffffffffffffffffffffffffffffffff1673ffffffffffffffffffffffffffffffffffffffff1673ffffffffffffffffffffffffffffffffffffffff168152602001600282015481526020016003820160009054906101000a900473ffffffffffffffffffffffffffffffffffffffff1673ffffffffffffffffffffffffffffffffffffffff1673ffffffffffffffffffffffffffffffffffffffff16815260200160048201548152505084868151811061031b577f4e487b7100000000000000000000000000000000000000000000000000000000600052603260045260246000fd5b60200260200101819052506001856103339190610afa565b945050505b808061034390610b9e565b91505061014f565b5080935050505090565b6002600054141561039b576040517f08c379a000000000000000000000000000000000000000000000000000000000815260040161039290610a55565b60405180910390fd5b6002600081905550600081116103e6576040517f08c379a00000000000000000000000000000000000000000000000000000000081526004016103dd90610a75565b60405180910390fd5b6103f060016106e9565b60006103fc60016106db565b90506040518060a001604052808281526020018573ffffffffffffffffffffffffffffffffffffffff168152602001848152602001600073ffffffffffffffffffffffffffffffffffffffff16815260200183815250600360008381526020019081526020016000206000820151816000015560208201518160010160006101000a81548173ffffffffffffffffffffffffffffffffffffffff021916908373ffffffffffffffffffffffffffffffffffffffff1602179055506040820151816002015560608201518160030160006101000a81548173ffffffffffffffffffffffffffffffffffffffff021916908373ffffffffffffffffffffffffffffffffffffffff160217905550608082015181600401559050508373ffffffffffffffffffffffffffffffffffffffff166323b872dd3330866040518463ffffffff1660e01b8152600401610551939291906109d3565b600060405180830381600087803b15801561056b57600080fd5b505af115801561057f573d6000803e3d6000fd5b50505050828473ffffffffffffffffffffffffffffffffffffffff16827f6c768f237d15b0eedb46b2f49918dc5109839c2d232c382d377c40fabeeec92d6000866040516105ce929190610a0a565b60405180910390a4506001600081905550505050565b6105ec6106ff565b600360008381526020019081526020016000206040518060a0016040529081600082015481526020016001820160009054906101000a900473ffffffffffffffffffffffffffffffffffffffff1673ffffffffffffffffffffffffffffffffffffffff1673ffffffffffffffffffffffffffffffffffffffff168152602001600282015481526020016003820160009054906101000a900473ffffffffffffffffffffffffffffffffffffffff1673ffffffffffffffffffffffffffffffffffffffff1673ffffffffffffffffffffffffffffffffffffffff1681526020016004820154815250509050919050565b600081600001549050919050565b6001816000016000828254019250508190555050565b6040518060a0016040528060008152602001600073ffffffffffffffffffffffffffffffffffffffff16815260200160008152602001600073ffffffffffffffffffffffffffffffffffffffff168152602001600081525090565b60008135905061076981610c68565b92915050565b60008135905061077e81610c7f565b92915050565b60008060006060848603121561079957600080fd5b60006107a78682870161075a565b93505060206107b88682870161076f565b92505060406107c98682870161076f565b9150509250925092565b6000602082840312156107e557600080fd5b60006107f38482850161076f565b91505092915050565b600061080883836108e5565b60a08301905092915050565b61081d81610b62565b82525050565b61082c81610b50565b82525050565b61083b81610b50565b82525050565b600061084c82610ac0565b6108568185610ad8565b935061086183610ab0565b8060005b8381101561089257815161087988826107fc565b975061088483610acb565b925050600181019050610865565b5085935050505092915050565b60006108ac601f83610ae9565b91506108b782610c16565b602082019050919050565b60006108cf601c83610ae9565b91506108da82610c3f565b602082019050919050565b60a0820160008201516108fb60008501826109b5565b50602082015161090e6020850182610823565b50604082015161092160408501826109b5565b5060608201516109346060850182610814565b50608082015161094760808501826109b5565b50505050565b60a08201600082015161096360008501826109b5565b5060208201516109766020850182610823565b50604082015161098960408501826109b5565b50606082015161099c6060850182610814565b5060808201516109af60808501826109b5565b50505050565b6109be81610b94565b82525050565b6109cd81610b94565b82525050565b60006060820190506109e86000830186610832565b6109f56020830185610832565b610a0260408301846109c4565b949350505050565b6000604082019050610a1f6000830185610832565b610a2c60208301846109c4565b9392505050565b60006020820190508181036000830152610a4d8184610841565b905092915050565b60006020820190508181036000830152610a6e8161089f565b9050919050565b60006020820190508181036000830152610a8e816108c2565b9050919050565b600060a082019050610aaa600083018461094d565b92915050565b6000819050602082019050919050565b600081519050919050565b6000602082019050919050565b600082825260208201905092915050565b600082825260208201905092915050565b6000610b0582610b94565b9150610b1083610b94565b9250827fffffffffffffffffffffffffffffffffffffffffffffffffffffffffffffffff03821115610b4557610b44610be7565b5b828201905092915050565b6000610b5b82610b74565b9050919050565b6000610b6d82610b74565b9050919050565b600073ffffffffffffffffffffffffffffffffffffffff82169050919050565b6000819050919050565b6000610ba982610b94565b91507fffffffffffffffffffffffffffffffffffffffffffffffffffffffffffffffff821415610bdc57610bdb610be7565b5b600182019050919050565b7f4e487b7100000000000000000000000000000000000000000000000000000000600052601160045260246000fd5b7f5265656e7472616e637947756172643a207265656e7472616e742063616c6c00600082015250565b7f5072696365206d757374206265206174206c6561737420312077656900000000600082015250565b610c7181610b50565b8114610c7c57600080fd5b50565b610c8881610b94565b8114610c9357600080fd5b5056fea2646970667358221220420c2e2dafb6c451597ac6aeb0270cebf60d9575888826ce84daf387865854bc64736f6c63430008040033",
  "linkReferences": {},
  "deployedLinkReferences": {}
}